:020000040800F2
:1000000030B1002029030008495700087142000858
:10001000A9560008090B0008858D000800000000A3
:10002000000000000000000000000000690200085D
:10003000DF14000800000000C50200080984000861
:100040004303000843030008430300084303000878
:100050004303000843030008E114000843030008B9
:1000600043030008EB140008F514000843030008DC
:100070004D0B000843030008430300084303000836
:100080004303000843030008430300081D0B000856
:100090000D0B00084303000843030008FF14000889
:1000A0004303000843030008430300084303000818
:1000B0004303000843030008430300084303000808
:1000C00043030008430300084303000843030008F8
:1000D000430300084303000843030008758D00082C
:1000E00043030008430300084303000843030008D8
:1000F00043030008430300084303000843030008C8
:1001000043030008430300084303000843030008B7
:1001100043030008430300084303000843030008A7
:1001200043030008430300085D0B00084303000875
:100130004303000843030008430300083D0B000885
:100140002D0B000843030008430300084303000885
:100150004303000843030008430300084303000867
:100160004303000843030008430300084303000857
:100170004303000843030008430300080000000095
:10018000430300084303000800F002F800F05CF8A5
:100190000AA090E8000C82448344AAF10107DA45E2
:1001A00001D100F051F8AFF2090EBAE80F0013F0D8
:1001B000010F18BFFB1A43F00103184784C8000061
:1001C000A4C800000A444FF0000C10F8013B13F0E3
:1001D000070408BF10F8014B1D1108BF10F8015BA0
:1001E000641E05D010F8016B641E01F8016BF9D193
:1001F00013F0080F1EBF10F8014BAD1C0C1B09D1EA
:100200006D1E58BF01F801CBFAD505E014F8016B5B
:1002100001F8016B6D1EF9D59142D6D370470000ED
:100220000023002400250026103A28BF78C1FBD8FF
:10023000520728BF30C148BF0B6070471FB50CF094
:1002400088FB1FBD10B510BD00F002FA1146FFF784
:10025000F5FF0AF071F900F020FA03B4FFF7F2FF9E
:1002600003BC00F023FA00002C4B19680868B0E8C2
:10027000F04F80F30988BFF36F8F4FF0000080F3D9
:10028000118870470000000008480068006880F38B
:1002900008884FF0000080F3148862B661B6BFF39F
:1002A0004F8FBFF36F8F00DF00BF00BF08ED00E08E
:1002B000DFF80C00016841F470010160704700BF75
:1002C00088ED00E0EFF30980BFF36F8F134B1A68DE
:1002D0001EF0100F08BF20ED108A20E9F04F1060CB
:1002E00009B44FF0500080F31188BFF34F8FBFF374
:1002F0006F8F0BF0D7FA4FF0000080F3118809BC24
:1003000019680868B0E8F04F1EF0100F08BFB0EC95
:10031000108A80F30988BFF36F8F7047F4000020C4
:10032000EFF30580704700000948804709480047FF
:10033000FEE7FEE7FEE7FEE7FEE7FEE7FEE7FEE795
:10034000FEE7FEE704480549054A064B70470000F2
:10035000D1840008890100083071002030B10020EC
:10036000309100203091002053EA020C00F06980A7
:100370002DE9F04B4FF00006002B1FBFB3FA83F5B9
:1003800003FA05F424FA05F65E4012BF1643B2FAEA
:1003900082F502FA05F4C5F120051EBF22FA05FC1C
:1003A00044EA0C04203556EA044C4FEA144418BFC2
:1003B000641C4FF000084FF00009904271EB030CF1
:1003C00039D3002919BFB1FA81F701FA07F6B0FA5B
:1003D00080F700FA07F6C7F120071EBF20FA07FCD6
:1003E00046EA0C062037B6FBF4FCA7EB0507103FE6
:1003F00007F01F0BCBF120060CFA0BFB2CFA06F6CC
:1004000044BFB3460026202FA4BF5E464FF0000B2A
:100410005BEA060C08BF4FF0010B19EB0B09ABFBB5
:10042000027C48EB0608C01B06FB02CC0BFB03CC8E
:1004300071EB0C01C1E70B46024641464846BDE858
:10044000F08B13B54FF000004FF00001AFF30080C8
:10045000BDE81C40704710B5431C02E010F8011BBA
:1004600071B18107FAD14FF0013202C88C1A8C4366
:1004700014EAC211F9D0C01A0A0603D0C01E10BD7A
:10048000C01A10BD0A0401D0801E10BD0902FCD0A4
:10049000401E10BD032A40F2308010F0030C00F023
:1004A000158011F8013BBCF1020F624498BF11F8AE
:1004B00001CB00F8013B38BF11F8013BA2F1040267
:1004C00098BF00F801CB38BF00F8013B11F00303DF
:1004D00000F02580083AC0F0088051F8043B083A43
:1004E00051F804CBA0E80810F5E7121D5CBF51F8E5
:1004F000043B40F8043BAFF30080D20724BF11F85F
:10050000013B11F801CB48BF11F8012B24BF00F8C3
:10051000013B00F801CB48BF00F8012B704710B534
:10052000203AC0F00B80B1E81850203AA0E81850EB
:10053000B1E81850A0E81850BFF4F5AF5FEA027CAC
:1005400024BFB1E81850A0E8185044BF18C918C01B
:10055000BDE810405FEA827C24BF51F8043B40F8BC
:10056000043B08BF7047D20728BF31F8023B48BFA1
:1005700011F8012B28BF20F8023B48BF00F8012BDF
:10058000704702F0FF0343EA032242EA024200F00E
:1005900037B84FF0000200B513469446964620390E
:1005A00022BFA0E80C50A0E80C50B1F12001BFF42C
:1005B000F7AF090728BFA0E80C5048BF0CC05DF892
:1005C00004EB890028BF40F8042B08BF704748BFE0
:1005D00020F8022B11F0804F18BF00F8012B704754
:1005E00070477047704710B500F02AF8006810BDDA
:1005F00010B5044600F024F8046010BD4FF000026E
:100600000429C0F0128010F0030C3FF4C4AFCCF109
:10061000040CBCF1020F18BF00F8012BA8BF20F892
:10062000022BA1EB0C01FFF7B6BF5FEAC17C24BF30
:1006300000F8012B00F8012B48BF00F8012B704790
:1006400000487047CC70002000487047CC700020F4
:100650007546FFF7F9FFAE4605006946534620F0A0
:100660000700854618B020B5FFF76CFEBDE82040B6
:100670004FF000064FF000074FF000084FF0000B5E
:1006800021F00701AC46ACE8C009ACE8C009ACE811
:10069000C009ACE8C0098D46704710B50446AFF3F9
:1006A00000802046BDE81040FFF7D7BD0149182063
:1006B000ABBEFEE72600020070470000B7EE000A5E
:1006C00080ED000A9FED060A80ED010A9FED040A05
:1006D00080ED020A9FED020A80ED030A70470000D8
:1006E000000000002DE9F0412DED028B0646B0EE32
:1006F000408A0C4615461F4695ED023AF0EE432A15
:1007000095ED013AB0EE432A95ED003AF0EE431A2A
:1007100094ED023AB0EE431A94ED013AF0EE430A3A
:1007200094ED003AB0EE430A9FED064ADFED053A3C
:100730009FED043A304604F063FBBDEC028BBDE84C
:10074000F08100000000000010B5012210210248D5
:1007500001F06EFF10BD00000000024010B5002245
:100760001021024801F064FF10BD000000000240AB
:100770007047000010B501221146024801F058FFF1
:1007800010BD00000004024010B500220121024803
:1007900001F04EFF10BD00000004024010B5437888
:1007A0001B021BB20478234300EE103AB8EEC01AC5
:1007B0001C4BD3ED001A21EE211A81ED001AC378EB
:1007C0001B021BB28478234300EE103AB8EEC01A25
:1007D000144BD3ED001A21EE211A81ED011A437951
:1007E0001B021BB20479234300EE103AB8EEC01A84
:1007F0000C4BD3ED001A21EE211A81ED021A037A77
:100800001B04C47943EA04238479234300EE903A1D
:10081000B8EE601ADFED041A21EE211A82ED001AFB
:1008200010BD00008800002000401C42704710B539
:100830000446204609F03EFF10BD10B50446204690
:1008400009F098FA10BD00004278120212B2037843
:100850001A4300EE102AF8EEC00A144A92ED001A6C
:1008600060EE810AC1ED000AC278120212B28378EA
:100870001A4300EE102AF8EEC00A0C4A92ED001A54
:1008800060EE810AC1ED010A4279120212B20379C7
:100890001A4300EE102AF8EEC00A044A92ED001A3C
:1008A00060EE810AC1ED020A704700008C00002052
:1008B00010B50024FFF75CFFFFF7B8FF08F086FDD6
:1008C00010B144F0800402E008F0E6FC044308F0B4
:1008D00075FF10B144F0400402E008F0F5FE044357
:1008E000204610BD2DE9FC4105460E461746002066
:1008F00000900190FFF732FF922000F0D1F806221D
:100900006946122000F0ACF8FFF71EFF9DF80100C9
:10091000000200B29DF8001040EA010400EE104A07
:10092000B8EEC00A4C48D0ED000A20EE200A86ED51
:10093000000A9DF80300000200B29DF8021040EA90
:10094000010400EE104AB8EEC00A4348D0ED000A98
:1009500020EE200A86ED010A9DF80500000200B293
:100960009DF8041040EA010400EE104AB8EEC00AF7
:100970003948D0ED000A20EE200A86ED020AFFF782
:1009800003FF08226946002000F06AF8FFF7F2FE34
:100990009DF800000F2838D19DF80300000200B236
:1009A0009DF8021040EA010400EE104AB8EEC00AB9
:1009B0002A48D0ED000A20EE200A85ED000A9DF8B5
:1009C0000500000200B29DF8041040EA010400EEA8
:1009D000104AB8EEC00A2148D0ED000A20EE200AE5
:1009E00085ED010A9DF80700000200B29DF806108F
:1009F00040EA010400EE104AB8EEC00A1748D0EDF4
:100A0000000A20EE200A85ED020AFFF7A7FEA220C9
:100A100000F046F802226946222000F021F8FFF794
:100A200093FE9DF80000C0009DF8011040EA61149B
:100A3000B4F5806F02DBA4F5006004B200EE104A4A
:100A4000F8EEC00AB4EE001AB3EE070A00EE810A0F
:100A500087ED000ABDE8FC81880000208C000020A2
:100A600070B506460C46154646F0800000F018F8B2
:100A700006E0552000F014F82070641C681EC5B212
:100A8000002DF6D170BD70B504460D4644F08000CF
:100A900000F006F8552000F003F8287070BD000043
:100AA00001B582B04FF47A70012301AA02A9009027
:100AB000024802F0F7FD9DF804000EBDF408002086
:100AC00010B502461378DB00547843EA6410B0F5A1
:100AD000806F02DBA0F5006318B200EE100AF8EE9A
:100AE000C00AB4EE001AB3EE070A00EE810A81EDE7
:100AF000000A10BD70B505460C462846FFF7D0FF2A
:100B00002046FFF7CDFF70BD00BFFEE710B50248DD
:100B100000F0EFFE10BD00005008002010B50248A4
:100B200000F0E7FE10BD00005008002010B502489C
:100B300000F0DFFE10BD00007808002010B502486C
:100B400000F0D7FE10BD00007808002010B5024864
:100B500001F02CFA10BD0000CC0A002010B5FE48B0
:100B6000C06C0068FD49884276D9FC48543800685A
:100B7000F949C96C0968FA4A914201D1202169E01A
:100B8000F549C96C0968F54A483A914201D12021DA
:100B900060E0F149C96C0968F14A6032914201D1C3
:100BA000202157E0EC49C96C0968EC4A183291429F
:100BB00001D120214EE0E849C96C0968E84A1832A1
:100BC000914201D1C91445E0E349C96C0968E34A7F
:100BD000303A914201D1C9143CE0DF49C96C09683F
:100BE000DF4A7832914201D1C91433E0DA49C96C45
:100BF0000968DA4A3032914201D1C9142AE0D64953
:100C0000C96C0968D64A3032914202D14FF40011C2
:100C100020E0D149C96C0968D04A183A914202D102
:100C20004FF4001116E0CC49C96C0968CC4A9032E7
:100C3000914202D14FF400110CE0C749C96C096818
:100C4000C64A4832914203D14FF4001102E003E05A
:100C50004FF00061084070E1BF48C06C0068C049B7
:100C6000A831884276D9BD4858380068BA49C96C5D
:100C70000968BB4A914201D1202169E0B649C96C9B
:100C80000968B64A483A914201D1202160E0B24950
:100C9000C96C0968B24A6032914201D1202157E003
:100CA000AD49C96C0968AD4A1832914201D1202181
:100CB0004EE0A949C96C0968A94A1832914201D18C
:100CC000C91445E0A449C96C0968A44A303A914264
:100CD00001D1C9143CE0A049C96C0968A04A783226
:100CE000914201D1C91433E09B49C96C09689B4A00
:100CF0003032914201D1C9142AE09749C96C096880
:100D0000974A3032914202D14FF4001120E09249CB
:100D1000C96C0968914A183A914202D14FF4001106
:100D200016E08D49C96C09688D4A9032914202D112
:100D30004FF400110CE08849C96C0968874A4832B1
:100D4000914203D14FF4001102E003E04FF0006143
:100D50000840F2E08048C06C006881494831884210
:100D600076D97F48103840687B49C96C09687C4A4D
:100D7000914201D1202169E07749C96C0968774A1D
:100D8000483A914201D1202160E07349C96C096859
:100D9000734A6032914201D1202157E06E49C96CFB
:100DA00009686E4A1832914201D120214EE06A4909
:100DB000C96C09686A4A1832914201D1C91445E0E8
:100DC0006549C96C0968654A303A914201D1C91434
:100DD0003CE06149C96C0968614A7832914201D1AD
:100DE000C91433E05C49C96C09685C4A30329142ED
:100DF00001D1C9142AE05849C96C0968584A3032EF
:100E0000914202D14FF4001120E05349C96C0968A6
:100E1000524A183A914202D14FF4001116E04E495D
:100E2000C96C09684E4A9032914202D14FF40011C8
:100E30000CE04949C96C0968484A4832914203D1DB
:100E40004FF4001102E003E04FF00061084074E04D
:100E50004348103800684049C96C0968404A9142CB
:100E600001D1202168E03C49C96C09683B4A483AF5
:100E7000914201D120215FE03749C96C0968384AA5
:100E80006032914201D1202156E03349C96C096892
:100E9000324A1832914201D120214DE02E49C96CCD
:100EA00009682F4A1832914201D1C91444E02A49F5
:100EB000C96C0968294A303A914201D1C9143BE012
:100EC0002549C96C0968264A7832914201D1C91472
:100ED00032E02149C96C0968204A3032914201D17F
:100EE000C91429E01C49C96C09681D4A3032914275
:100EF00002D14FF400111FE01749C96C0968174A65
:100F0000183A914202D14FF4001115E01249C96C10
:100F10000968134A9032914202D14FF400110BE05C
:100F20000D49C96C09680D4A4832914202D14FF40B
:100F3000001101E04FF00061084000286FD0064822
:100F4000C06C0068054988427BD90348C06C0068C2
:100F50000349884208D105E0F408002058640240A3
:100F600010600240202068E0FE48C06C0068FE4926
:100F7000884201D1202060E0FA48C06C0068FB493B
:100F8000884201D1202058E0F648C06C0068F6493C
:100F90006031884201D120204FE0F248C06C0068E7
:100FA000F2494839884201D1C01446E0ED48C06C8E
:100FB0000068ED491831884201D1C0143DE0E9488C
:100FC000C06C0068E9491831884201D1C01434E08E
:100FD000E448C06C0068E4497831884201D1C0140B
:100FE0002BE0E048C06C0068E0493039884202D10B
:100FF0004FF4001021E0DB48C06C0068DA49303162
:10100000884202D14FF4001017E0D648C06C006847
:10101000D6493031884204D14FF400100DE0DFE1B1
:101020000FE0D048C06C0068CF499031884202D1AF
:101030004FF4001001E04FF00060CB49091F086039
:101040006AE1C848C06C0068C8494831884274D910
:10105000C448C06C0068C5496039884201D120206D
:1010600066E0C048C06C0068BF49884201D12020BA
:101070005EE0BC48C06C0068BC49884201D12020B9
:1010800056E0B848C06C0068B7496031884201D169
:1010900020204DE0B348C06C0068B449483988420C
:1010A00001D1C01444E0AF48C06C0068AE491831AB
:1010B000884201D1C0143BE0AA48C06C0068AB492B
:1010C0001831884201D1C01432E0A648C06C0068D3
:1010D000A5497831884201D1C01429E0A148C06CEB
:1010E0000068A2493039884202D14FF400101FE055
:1010F0009C48C06C00689C493031884202D14FF452
:10110000001015E09748C06C00689849303188425B
:1011100002D14FF400100BE09248C06C0068924975
:101120009031884202D14FF4001001E04FF000608E
:101130008D4908390860EFE0FFE78A48C06C006815
:101140008A491839884274D98648C06C0068874932
:101150006039884201D1202066E08248C06C006876
:101160008149884201D120205EE07E48C06C006841
:101170007E49884201D1202056E07A48C06C006840
:1011800079496031884201D120204DE07548C06C1A
:10119000006876494839884201D1C01444E071485A
:1011A000C06C006870491831884201D1C0143BE01E
:1011B0006C48C06C00686D491831884201D1C01478
:1011C00032E06848C06C006867497831884201D1D4
:1011D000C01429E06348C06C006864493039884213
:1011E00002D14FF400101FE05E48C06C00685E49F9
:1011F0003031884202D14FF4001015E05948C06CDC
:1012000000685A493031884202D14FF400100BE097
:101210005448C06C006854499031884202D14FF460
:10122000001001E04FF0006050497039C86073E071
:10123000FFE74C48C06C00684C496039884201D1D6
:10124000202066E04748C06C00684749884201D1C9
:1012500020205EE04348C06C00684449884201D1C8
:10126000202056E03F48C06C00683F49603188420A
:1012700001D120204DE03B48C06C00683B49483913
:10128000884201D1C01444E03648C06C0068364939
:101290001831884201D1C0143BE03248C06C00686C
:1012A00032491831884201D1C01432E02D48C06C57
:1012B00000682D497831884201D1C01429E02948BD
:1012C000C06C006829493039884202D14FF40010BF
:1012D0001FE02448C06C006823493031884202D1A5
:1012E0004FF4001015E01F48C06C00681F493031F2
:1012F000884202D14FF400100BE01A48C06C00681D
:1013000019499031884202D14FF4001001E04FF0AA
:1013100000601649703988601548007800F00200B6
:1013200078B11348007820F002001149087008468F
:10133000007840F004000870012211460D4801F0C9
:1013400077F90D48007800F00200E0B10A48007813
:1013500020F00200084908700846007840F00400B8
:1013600008700BE0F4080020106402407060024036
:101370004D000020000402404E00002001221021F8
:10138000184801F055F91848007800F0020078B1CB
:101390001548007820F002001349087008460078CC
:1013A00040F004000870012210210E4801F040F9BD
:1013B00008F09EFD0D48007800F0040080B10B4855
:1013C000007820F00400094908700846007840F0D1
:1013D000080008700648006840F0010004490860F1
:1013E00010BD0000000002404F0000204D00002012
:1013F000103C014001680A4BCAB2103AA3FB02320A
:101400001209084B9B5CC365032A04D96FF30901D9
:10141000091D816502E06FF309018165806D7047E8
:10142000ABAAAAAA1ACA0008014600208A6A8B69D8
:10143000002B0FD0B3F5005F1DD08AB3012A30D046
:10144000022A2ED0032A04D1C96A11F0807F00D06D
:10145000012070471AB1012A07D0022AF9D1C96ABE
:1014600011F0807FF5D001207047C96AB1F1C07FCB
:10147000FAD1012070475AB1012A0BD0022A07D0B5
:10148000032AF7D1C96AB1F1C07FF3D101207047B7
:1014900001207047C96A11F0807FFAD0012070479F
:1014A000FFE70120704710B4D0F800C0DCF800401E
:1014B00024F48024CCF80040D0F800C0CCF80430EC
:1014C0008368402B05D0036899600068C26010BC37
:1014D000704703689A600068C16010BC704770472D
:1014E00010B5012000F08AFF10BD10B5082000F0F3
:1014F00085FF10BD10B5102000F080FF10BD10B5A5
:10150000202000F07BFF10BD70470000002110EE8E
:10151000101A080E044A1070080C5070080A9070D7
:10152000D170104670470000A00100200146C1F3B1
:101530000720704790F82020012A07D0022A05D002
:10154000416A41F48021416201207047006842698C
:10155000114341610020704770B490F82040D0F8EA
:1015600000C0DCF808C0012C08D0022C06D0416A6B
:1015700041F48021416270BC012070470CF080640E
:101580000CF000652C4302D11CF0805F5FD0CCF3DF
:10159000016CBCF1020F06D9416A41F400014162BD
:1015A00070BC01207047012404FA0CF41C608B68A5
:1015B0004FF4C0749BB1CD6804EB0C162B434D68FF
:1015C00043EAC5030568AB514FF4C273066803EBE9
:1015D0000C130D69F550097D012909D00DE00D8826
:1015E000CB6804EB0C1643EA45530568AB51EBE7B7
:1015F0000168CD5845F48075CD501179D37955796E
:1016000041EA036193791B0443EA052319434FF42C
:10161000C675036805EB0C1559511178D37841EA6A
:101620000361937852781B0443EA022211434FF47A
:10163000C473026803EB0C13D150016804EB0C1067
:101640000A5842F001020A5070BC00207047416AFB
:1016500041F40011416270BC0120704790F82020D5
:10166000012A07D0022A05D0416A41F48021416253
:10167000012070474248D0F8002242F00102C0F831
:101680000022D0F8002222F47C52C0F80022D0F8C8
:1016900000224B6A42EA0322C0F800220A7D01239D
:1016A00002F01F0203FA02F2D0F81C329343C0F892
:1016B0001C32CB69D3B9D0F80C329343C0F80C324A
:1016C000B1F80CC04B686CF31F43D1F814C000EBA9
:1016D000CC0CCCF84032B1F808C00B686CF31F4357
:1016E000D1F814C000EBCC0CCCF84432CB69012B00
:1016F0001AD1D0F80C321343C0F80C32B1F800C044
:101700004B686CF31F43D1F814C000EBCC0CCCF841
:101710004032B1F808C0CB686CF31F43D1F814C055
:1017200000EBCC0CCCF844328B697BB1D0F804329E
:101730001343C0F804320B6973B1D0F81432134369
:10174000C0F81432096A01290CD010E0D0F8043234
:101750009343C0F80432EEE7D0F814329343C0F854
:101760001432EFE7D0F81C121143C0F81C12D0F865
:10177000001221F00101C0F80012002070470000A3
:1017800000640040704710B490F820C0BCF1010F15
:1017900009D0BCF1020F06D0416A41F480214162B8
:1017A00010BC0120704739B1D0F800C0DCF810C07F
:1017B0001CF0030F7DD006E0D0F800C0DCF80CC0B0
:1017C0001CF0030F7BD04FF4D87C04680CEB011C99
:1017D00054F80C4004F004049460002C7DD004689C
:1017E00054F80C40E4085460046854F80CC0CCF37E
:1017F000400CC2F80CC04FF4DA7C04680CEB011CFE
:1018000054F80C4004F00F041461046854F80C40C0
:10181000C4F307249461046854F80CC04FEA1C4CCC
:10182000C2F814C04FF4DC72D0F800C002EB011211
:101830005CF802C083F800C0D0F800C05CF802C0B9
:101840004FEA1C2C83F801C0D0F800C05CF802C03D
:101850004FEA1C4C83F802C0D0F800C05CF80220AC
:10186000120EDA704FF4DE72D0F800C002EB0112F3
:101870005CF802C083F804C0D0F800C05CF802C075
:101880004FEA1C2C83F805C0D0F800C05CF802C0F9
:101890004FEA1C4C83F806C0D0F800C05CF8022068
:1018A000120EDA71F9B10068016941F0200101619D
:1018B00002E00BE003E010E010BC00207047416A3A
:1018C00041F40011416210BC01207047416A41F4AB
:1018D0000011416210BC01207047046854F80C40AC
:1018E000640D146080E70068C16841F02001C160A8
:1018F000DEE72DE9F05F0546002428684669D0F848
:1019000004908768D0F80CA0D0F810B0D0F81880F8
:1019100016F0010F54D017F0010F17D0012181608C
:1019200017F0020F03D0284600F028FB0EE017F056
:10193000040F02D04FF4006408E017F0080F02D043
:101940004FF4805402E0284600F017FB17F4807F24
:1019500019D029684FF48070886017F4007F03D095
:10196000284600F00DFB0EE017F4806F02D044F41F
:10197000005408E017F4006F02D044F4804402E001
:10198000284600F0FCFA17F4803F19D029684FF47C
:101990008030886017F4003F03D0284600F0F2FA48
:1019A0000EE017F4802F02D044F4004408E017F44E
:1019B000002F02D044F4803402E0284600F0E1FA1F
:1019C00016F0080F07D01AF0100F04D044F400747A
:1019D00029681020C86016F0040F4FF0080707D0E0
:1019E0001AF0080F04D02868C760284600F010FAE3
:1019F00016F0020F07D02868C06810F0030F02D05D
:101A0000284600F007FA16F0400F07D01BF0100F21
:101A100004D044F4806429681020086116F0200F77
:101A200007D01BF0080F04D028680761284600F093
:101A30006FFA16F0100F07D02868006910F0030F36
:101A400002D0284600F065FA16F4003F08D019F0DD
:101A5000100F05D0296810204860284600F05AFA77
:101A600016F4803F07D019F0080F04D028684760AB
:101A7000284600F088FA16F4004F4AD019F0040FF7
:101A800044D016F4807F04D018F0010F01D044F048
:101A9000010416F4007F04D018F0020F01D044F0C6
:101AA000020416F4806F04D018F0040F01D044F043
:101AB000040416F4006F29D018F0700F26D008F037
:101AC0007000402815D006DC102809D020280AD044
:101AD000302816D10AE050280ED0602811D10EE02F
:101AE00044F008040DE044F010040AE044F020043F
:101AF00007E044F0400404E044F0800401E044F4D2
:101B000080742868816921F070018161296804204E
:101B10004860002C05D0686A204368622846FFF7B9
:101B200031FEBDE8F09F70B50446002C03D094F858
:101B3000200010B104E0012070BD204600F0A8F89C
:101B40002068016821F00201016000F079FD05467E
:101B5000206840684FF0050610F0020F11D000F029
:101B60006FFD401B0A2807D9606A40F400306062AC
:101B700084F82060012070BD2068406810F0020FDA
:101B8000EDD12068016841F00101016000F058FDCD
:101B900005462068406810F0010F11D100F050FD9B
:101BA000401B0A2807D9606A40F40030606284F85C
:101BB0002060012070BD2068406810F0010FEDD05A
:101BC000207E01283FD02068016821F0800101605B
:101BD000607E01283DD02068016821F0400101604D
:101BE000A07E01283BD02068016821F0200101601F
:101BF000E07E012839D02068016841F010010160C1
:101C0000207F012837D02068016821F00801016099
:101C1000607F012835D02068016821F0040101604F
:101C2000E168A0686269084321691143084361685B
:101C3000491E08432168C86100206062012084F8C1
:101C40002000002070BD2068016841F08001016023
:101C5000BEE72068016841F040010160C0E72068EC
:101C6000016841F020010160C2E72068016821F0AD
:101C700010010160C4E72068016841F008010160BB
:101C8000C6E72068016841F004010160C8E7000070
:101C900010B586B00446142101A8FEF77AFC564917
:101CA0002068884249D155480068401C5349086063
:101CB0000846006801280FD100BF0020009050485E
:101CC000006840F000704E4908600846006800F067
:101CD0000070009000BF00BF00BF00200090484887
:101CE0001038006840F0080045491039086008467F
:101CF000006800F00800009000BF00BF03200190C2
:101D000002200290002003900320049009200590F7
:101D100001A93C4800F07EFB00220521132001F0C0
:101D20005BF8132001F04AF800220521142001F08D
:101D300053F8142001F042F85CE0334920688842EF
:101D400058D100BF002000902D48006840F080600E
:101D50002B4908600846006800F08060009000BFD2
:101D600000BF26480068401C2449086008460068F7
:101D700001280FD100BF002000902148006840F0EA
:101D800000701F4908600846006800F0007000906D
:101D900000BF00BF00BF0020009019481038006845
:101DA00040F002001649103908600846006800F04B
:101DB0000200009000BF00BF60200190022002904E
:101DC00000200390032004900920059001A90F48EA
:101DD00000F020FB002205213F2000F0FDFF3F2006
:101DE00000F0ECFF00220521402000F0F5FF40202C
:101DF00000F0E4FF06B010BD0064004010000020B9
:101E000040380240000C02400068004000040240DC
:101E1000704700001CB504466B46384A0021204636
:101E2000FFF7B1FC6B46354A00212046FFF7ABFCBB
:101E300032494868FFF77AFB314908602F4800684B
:101E400040F20222811A90420DD006DC062841D0D1
:101E5000A0F2012000284DD104E0012904D003297B
:101E600048D102E000BF00BF00BF26490988491CD5
:101E7000244A118021490978491EC8B29DF80110F1
:101E80009DF8002041EA022100EB40021E4B03EBCB
:101E9000820291809DF803109DF8022041EA022100
:101EA00009B200EB400203EB8202D1809DF80510DD
:101EB0009DF8042041EA022109B200EB400203EB45
:101EC000820211819DF8061000EB400203EB8202B2
:101ED000917210E009484068000E30B10748694629
:101EE00042680A4803F0E2FB03E09DF8000007495E
:101EF000487000E000BF00BF1CBD0000240C0020A3
:101F0000BC000020B4000020D00B00204C7000204A
:101F100070477047704770B5044694F82000012858
:101F200005D0606A40F400206062012070BD02208C
:101F300084F820002068016821F00101016000F0B0
:101F40007FFB05462068406810F0010F12D000F0BA
:101F500077FB401B0A2808D9606A40F400306062B1
:101F6000052084F82000012070BD2068406810F032
:101F7000010FECD10020606270BD70477047704760
:101F8000704770477047704790F83510022903D0AA
:101F90008021416501207047052180F835100068D7
:101FA000016821F001010160002070472DE9F8432C
:101FB00004464FF00008CDF8008076484FF41651E3
:101FC0000068B0FBF1F7A56D2E6894F85C0008215D
:101FD00001FA00F0304211D02068026812F0040FBC
:101FE0000CD0026822F00402026094F85C0001FA4E
:101FF00000F0A860606D40F00100606594F85C003E
:102000004FF0010909FA00F0304209D0216849690E
:1020100011F0800F04D0A860606D40F00200606590
:1020200094F85C1004208840304209D02168096887
:1020300011F0020F04D0A860606D40F004006065EC
:1020400094F85C1010208840304224D02168096840
:1020500011F0080F1FD0A8602068016811F4802FCC
:102060000DD0006810F4002F04D0A16C99B1204667
:10207000884710E0216C71B1204688470BE0016869
:1020800011F4807F03D1016821F008010160216C07
:1020900009B12046884794F85C10202088403042DF
:1020A00051D02168096811F0100F4CD0A86094F845
:1020B000350005280DD02068016811F4802F32D03A
:1020C000006810F4002F29D0E16B59B320468847EF
:1020D00039E02068016821F016010160206841693B
:1020E00021F080014161206C08B9A06C20B120680A
:1020F000016821F00801016094F85C003F2101FAB9
:1021000000F0A86084F8348084F83590216D0029AF
:102110003ED001B02046BDE8F0430847616C09B1EC
:10212000204688470FE0016811F4807F07D10168DD
:1021300021F01001016084F8348084F83590E16B5F
:1021400009B120468847606D002821D0606D10F0ED
:10215000010F15D0052084F835002068016821F0B2
:10216000010101600098401C0090B84204D820682A
:10217000006810F0010FF5D184F8348084F83590B0
:10218000E16C002904D001B02046BDE8F0430847C7
:10219000BDE8F883140000202DE9F041044600F06A
:1021A0004FFA0546DCB1002684F83460022084F83A
:1021B00035002068016821F0010101602068006895
:1021C00010F0010F13D000F03BFA401B052809D98D
:1021D00020206065032084F83500BDE8F0810120EF
:1021E000BDE8F0812068006810F0010FEBD1216894
:1021F0000868234A1040A3686268D4F810C01A43E4
:10220000E36843EA0C031A4363691A43A3691A4358
:10221000E3691A43236A1A431043626A042A03D10A
:10222000236BE26A1A43104308602068406920F07B
:102230000701606A40EA0105012704280ED1A06A5F
:102240000543E06A50B12046FFF7EEF830B1402078
:10225000606584F835700120BDE8F0812068456133
:102260002046FFF7C7F894F85C103F2202FA01F10C
:102270008160666584F835700020BDE8F08100005B
:102280003F8010F070B504460025A66D94F8340028
:1022900001280DD0012084F8340094F835C00020C6
:1022A000BCF1010F06D084F834000225284670BD29
:1022B000022070BD4FF0020C84F835C060652046E6
:1022C000FFF7F1F894F85C003F2101FA00F0B060EC
:1022D0002068016841F0160101602068416941F001
:1022E00080014161206C20B12068016841F0080143
:1022F00001602068016841F001010160D6E700003B
:1023000070B5044600F09CF90546B4F1FF3F02D0D9
:1023100004480078044400F093F9401BA042FAD32B
:1023200070BD0000C000002010B50446102C12D172
:102330002948007840F001002749087027480078B4
:1023400040F001002549087025480078002841D058
:1023500007F0CEFD3EE0202C0BD12248007840F063
:102360000100204908701E48007898B307F0C0FDAE
:1023700030E0082C19D11C48007840F001001A49BF
:1023800008700846007800F00100087010B3084695
:10239000007820F0010008700846007840F0020044
:1023A0000870124807F0AAFF14E0012C12D109F0BE
:1023B00073FE01280ED00E490E48006809F08AF914
:1023C0000B48006830B120070B490860BFF34F8FFE
:1023D000BFF36F8F10BD00004E0000204F000020A3
:1023E000510000204D00002050000020600B002014
:1023F000540000202800002004ED00E010B504493E
:102400000A68024202D00860FFF78EFF10BD00008C
:10241000143C01402DE9F84F0022DFF80082DFF87C
:102420000092DFF800A24FF0030E0F27012303FAFA
:1024300002F50B682B40AB427DD1D1F804C0BCF152
:10244000020F02D0BCF1120F12D14FEAD20C00EBF6
:102450008C0CDCF820605407E40E07FA04FB26EA33
:102460000B06D1F810B00BFA04F43443CCF820403A
:1024700006684FEA420C0EFA0CF4A64391F804B039
:102480000BF0030B0BFA0CFB4BEA060606604E68DA
:10249000012E05D0022E03D0112E01D0122E11D103
:1024A0008668A643D1F80CB00BFA0CFB4BEA060683
:1024B0008660466826EA05050E79C6F30016964042
:1024C00035434560C56825EA04048D6805FA0CFCAF
:1024D0004CEA040CC0F80CC0D1F804C01CF0805FBA
:1024E0007DD0D8F800C04CF4804CC8F800C0D8F8B3
:1024F00000C00CF4804CCDF800C022F0030C0CF1AD
:10250000804404F59834D4F808C895072D0F07FACD
:1025100005F62CEA0606A0F1804CBCF5003C64D020
:10252000A0F1804CBCF5013C62D0A0F1804CBCF520
:10253000023C60D000E052E0A0F1804CBCF5033CCE
:102540005CD0A0F1804CBCF5043C5AD0A0F1804C8A
:10255000BCF5053C58D0A0F1804CBCF5063C56D0EB
:10256000A0F1804CBCF5073C54D04FF0080C0CFA9D
:1025700005FC4CEA060CC4F808C8D9F800C02CEADF
:10258000030C4C6814F4803F01D04CEA030CC9F8EA
:1025900000C0254CD4F800C02CEA030C4D6815F49B
:1025A000003F01D04CEA030CC4F800C0DAF800C0C8
:1025B0002CEA030C4C6814F4801F01D04CEA030C85
:1025C000CAF800C0194CD4F800C02CEA030C4D68BE
:1025D00015F4001F01D04CEA030CC4F800C0521CD3
:1025E000102AFFF423AFBDE8F88F4FF0000CBEE7D0
:1025F0004FF0010CBBE74FF0020CB8E74FF0030CB3
:10260000B5E74FF0040CB2E74FF0050CAFE74FF021
:10261000060CACE74FF0070CA9E700004438024075
:10262000003C0140083C0140043C01400C3C01409E
:10263000002A01D081617047090481617047000060
:102640000148806870470000C000002070B5044653
:10265000002C04D094F83D00002510B106E00120C4
:1026600070BD84F83C50204600F0D6FA242084F84F
:102670003D002068016821F00101016000F0B2FC1A
:10268000544B6168994203D85349884203D304E00C
:102690005249884201D2012070BD5149B0FBF1F18D
:1026A0002268D2F804C02CF03F0C4CEA010CC2F8AE
:1026B00004C062689A4201D84A1C07E04FF496723F
:1026C00051434FF47A72B1FBF2F14A1C2168D1F800
:1026D00020C02CF03F0C42EA0C020A626168994269
:1026E00010D84900401EB0FBF1F2521CC2F30B029D
:1026F000042A01D2042026E0B0FBF1F0401CC0F314
:102700000B0020E0A268002A50D001EBC10303EBCC
:102710000113A0F1010CBCFBF3F35B1C43F48043F9
:102720001B051B0D4AD0002A4AD001EBC10202EB67
:102730000111401EB0FBF1F0401CC0F30B0040F44F
:10274000804040F400402168CA6922F0FF0222F470
:102750004F421043C861216AE06901432068026862
:1027600022F0C00211430160E16820690143206842
:10277000826822F0FF0222F4034211438160A169C2
:10278000606901432068C26822F0FF021143C16002
:102790002068016841F0010101602564202084F86F
:1027A0003D00256384F83E50002070BD01EB4103DD
:1027B000A0F1010CBCFBF3F35B1CB1E70120C2E705
:1027C00001EB4101401EB0FBF1F0401CC0F30B00D7
:1027D000B7E70000A086010080841E0000093D00CC
:1027E00040420F002DE9FF4F83B004468A469346CE
:1027F000DDF84490DDF84080129EFFF721FF05468A
:1028000094F83D00202803D007B00220BDE8F08FE7
:1028100019230122A0492046009501F06DFE18B150
:1028200007B00220BDE8F08F94F83C00012808D0E2
:10283000012084F83C002068016811F0010F04D0E9
:1028400007E007B00220BDE8F08F016841F0010108
:1028500001602068016821F400610160222084F891
:102860003D00402084F83E0000272764C4F82480FF
:10287000A4F82A90608D20858848E0620195009632
:102880005A4651462046069B01F00EFD18B107B08E
:102890000120BDE8F08F208D10B3012829D0022837
:1028A00035D02068416980690290208D002800F0B1
:1028B000E880DFF8EC81208D032800F2B780012842
:1028C00034D002284AD033460022414620460095A3
:1028D00001F012FE00286CD007B00120BDE8F08F97
:1028E0002068416981690291016841F400710160C9
:1028F000DBE72068016821F480610160206841699C
:1029000081690291016841F400710160CDE720689E
:10291000016821F4806101602068016841F4006170
:1029200001602068416980690290BEE72A4631460D
:10293000204601F0A2FE18B107B00120BDE8F08FDB
:1029400020680069616A0870606A401C6062208DBE
:10295000401E2085608D401E60858EE0334600223B
:1029600041462046009501F0C7FD18B107B001208F
:10297000BDE8F08F2068016841F4007101602068B3
:102980000069616A0870606A401C6062218D491E9E
:102990002185618D491E6185216809690170606A20
:1029A000401C6062208D401E2085608D401E608529
:1029B00063E02068016821F480610160206800699B
:1029C000616A0870606A401C6062208D401E20852C
:1029D000608D401E608533460022414620460095AA
:1029E00001F08AFD18B107B00120BDE8F08F206822
:1029F000016841F40071016020680069616A087033
:102A0000606A401C6062218D491E2185618D491ECE
:102A10006185216809690170606A401C6062208DCF
:102A2000401E2085608D401E608526E02A46314686
:102A3000204601F022FE18B107B00120BDE8F08F5A
:102A400020680069616A0870606A401C6062218DBC
:102A5000491E2185618D491E61852268516911F0E9
:102A6000040F0AD011690170606A401C6062208DF9
:102A7000401E2085608D401E6085208D00287FF4DB
:102A80001AAF202084F83D0084F83E7084F83C7032
:102A900007B00020BDE8F08F020010000000FFFF2B
:102AA000040001002DE9FF4F83B004468A46934697
:102AB000DDF84490DDF84080129EFFF7C1FD054629
:102AC00094F83D00202803D007B00220BDE8F08F25
:102AD000192301224E492046009501F00DFD18B141
:102AE00007B00220BDE8F08F94F83C00012808D020
:102AF000012084F83C002068016811F0010F04D027
:102B000007E007B00220BDE8F08F016841F0010145
:102B100001602068016821F400610160212084F8CF
:102B20003D00402084F83E0000272764C4F824803C
:102B3000A4F82A90608D20853648E06201950096C1
:102B40005A4651462046069B01F048FC18B107B092
:102B50000120BDE8F08F208D002836D02A4631466E
:102B6000204601F0C8FD58B1206C042804D120682B
:102B7000016841F40071016007B00120BDE8F08FE9
:102B8000606A216800780861606A00F1010CC4F88D
:102B900024C0208D401E80B22085618D491E618534
:102BA0002368596911F0040F0CD058B19CF800004B
:102BB0001861606A401C6062208D401E2085608D17
:102BC000401E6085208D0028C8D12A463146204607
:102BD00001F064FC58B1206C042804D1206801681D
:102BE00041F40071016007B00120BDE8F08F20685A
:102BF000016841F400710160202084F83D0084F8F0
:102C00003E7084F83C7007B00020BDE8F08F0000F3
:102C1000020010000000FFFF10B586B0044614212A
:102C200001A8FDF7B6FC2A49206888424DD100BFB3
:102C3000002000902748006840F004002549086003
:102C40000846006800F00400009000BF00BF00BF0D
:102C5000002000900846006840F001000860084627
:102C6000006800F00100009000BF00BF481501900F
:102C7000122002900120039003200490042005906C
:102C800001A91548FFF7C6FB4FF480700190122090
:102C9000029001200390032004900420059001A9D4
:102CA0000E48FFF7B7FB00BF002000900948103026
:102CB000006840F4000007491031086008460068C9
:102CC00000F40000009000BF00BF06B010BD00007F
:102CD000005C004030380240000802400000024022
:102CE000024881680278114481607047C00000206A
:102CF00010B50B48016841F400710160016841F4AE
:102D000080610160016841F480710160032000F07E
:102D100097F80F2000F006F800F026F8002010BD0C
:102D2000003C024070B504460D4D4FF47A7128788E
:102D3000B1FBF0F00B490968B1FBF0F000F0AEFD1B
:102D400008B1012070BD102C07D200222146501E70
:102D500000F042F86C60002070BD012070BD0000E2
:102D6000C00000201400002008B500BF0020009023
:102D70001148006840F480400F4908600846006828
:102D800000F48040009000BF00BF00BF0020009012
:102D9000081F006840F08050091F0860084600685E
:102DA00000F08050009000BF00BF00220F21901E55
:102DB00000F012F808BD00004438024000280ADB89
:102DC00000F01F01012202FA01F14009800000F128
:102DD000E020C0F80011704710B4184B1B68C3F313
:102DE0000223C3F1070CBCF1040F01D94FF0040C0E
:102DF0001C1D072C01D2002300E0DB1E012404FA75
:102E00000CFCACF1010C0CEA0101994004FA03F34B
:102E10005B1E1A401143002806DB00F1E020090187
:102E200080F8001410BC704700F00F0000F1E020A3
:102E3000090180F8141D10BC704700000CED00E083
:102E400000F00700064A11684FF6FF03194041EAF7
:102E5000002040F0FD7040F080601060704700007E
:102E60000CED00E02DE9F04704460D46002C13D090
:102E7000DFF85091D9F80000EFB200F00F00A8423F
:102E80000DD289F80070D9F8000000F00F00A842B8
:102E900005D00120BDE8F0870120BDE8F08720685B
:102EA000494E10F0020F14D010F0040F03D0306818
:102EB00040F4E0503060207810F0080F03D0306804
:102EC00040F4604030603068A16820F0F0000843B2
:102ED0003060207810F0010F3ED060683B49012837
:102EE00008D002280DD003280BD0096811F0020F7A
:102EF00028D00AE0096811F4003F06D10120BDE89E
:102F0000F087096811F0007F19D0316821F00301C2
:102F100008433060FFF794FB80463068616800F03A
:102F20000C00B0EB810F17D041F2883AFFF788FB15
:102F3000A0EB0800504508D90320BDE8F087012028
:102F4000BDE8F0870120BDE8F0873068616800F0D7
:102F50000C00B0EB810FE9D1D9F8000000F00F00B0
:102F6000A8420AD989F80070D9F8000000F00F00D3
:102F7000A84202D00120BDE8F087207810F0040FAD
:102F800005D03068E16820F4E050084330602078D4
:102F900010F0080F06D03068216920F4604040EA44
:102FA000C100306000F03EF83168094AC1F30311F6
:102FB000515CC840074908600F20FFF7B3FE0020AE
:102FC000BDE8F087003C024008380240003802406B
:102FD000D8C90008140000200148006870470000AC
:102FE0001400002000B5FFF7F7FF04490968044A00
:102FF000C1F38221515CC84000BD00000838024086
:10300000E8C9000800B5FFF7E7FF04490968044A6A
:10301000C1F34231515CC84000BD00000838024095
:10302000E8C9000810B51748006810F00C011648F0
:1030300016D0164B042912D0082911D1144C21683E
:1030400001F03F02216811F4800F0AD02068C0F31C
:103050008810A0FB03010023FDF786F909E018465C
:1030600010BD21680023C1F38811A1FB0001FDF709
:103070007BF92168C1F30141491C4900B0FBF1F023
:1030800010BD0000083802400024F400001BB70007
:10309000043802402DE9F84F0446002C10D0207867
:1030A000FA4D10F0010F64D0F948016801F00C01ED
:1030B00004290DD0006800F00C00082803D011E0AE
:1030C0000120BDE8F88FF348006810F4800F09D0A4
:1030D000286810F4003F4CD06068002849D10120D6
:1030E000BDE8F88F6068B0F5803F14D0B0F5A02F30
:1030F00016D0286820F480302860286820F48020CA
:103100002860606810B3FFF79BFA0646286810F441
:10311000003F0ED02DE0286840F480302860F0E7B2
:10312000286840F480202860286840F480302860B7
:10313000E7E7FFF785FA801B642802D90320BDE882
:10314000F88F286810F4003FF3D012E0FFF778FA08
:103150000646286810F4003F0BD0FFF771FA801B79
:10316000642802D90320BDE8F88F286810F4003FD6
:10317000F3D12078C84F10F0020F4FF0000856D05E
:10318000C348016811F00C0F15D0006800F00C0066
:10319000082804D1BF48006810F4800F0BD0E06805
:1031A00078B301203860FFF74BFA0646286810F024
:1031B000020F12D01DE0286810F0020F05D0E06861
:1031C000012802D00120BDE8F88F2868216920F08D
:1031D000F80040EAC100286029E0FFF731FA801BBF
:1031E000022802D90320BDE8F88F286810F0020FEA
:1031F000F3D02868216920F0F80040EAC100286077
:1032000015E0FFE7C7F80080FFF71AFA06462868BE
:1032100010F0020F0BD0FFF713FA801B022802D91F
:103220000320BDE8F88F286810F0020FF3D1207852
:1032300010F0080F33D09948DFF864926169B9B192
:1032400001210160FFF7FCF90646D9F8000010F0F3
:10325000020F24D1FFF7F4F9801B022802D90320C2
:10326000BDE8F88FD9F8000010F0020FF2D016E098
:10327000C0F80080FFF7E4F90646D9F8000010F026
:10328000020F0CD0FFF7DCF9801B022802D90320C3
:10329000BDE8F88FD9F8000010F0020FF2D12078C5
:1032A00010F0040F73D04FF00009DFF8F8A1DAF83E
:1032B000000010F0805F0CD1DAF8000040F0805080
:1032C000CAF80000DAF8000000F0805000904FF0DB
:1032D0000109DFF8D4B1DBF8000010F4807F1AD1C7
:1032E000DBF8000040F48070CBF80000FFF7A8F98D
:1032F0000646DBF8000010F4807F0CD1FFF7A0F940
:10330000801B022802D90320BDE8F88FDBF80000FB
:1033100010F4807FF2D0A068DFF890B1012818D0B7
:1033200005281DD0DBF8000020F00100CBF80000DC
:10333000DBF8000020F00400CBF80000A06838B3F0
:10334000FFF77EF90646DBF8000010F0020F14D0FC
:103350003CE0DBF8000040F00100CBF80000EDE7B6
:10336000DBF8000040F00400CBF80000DBF80000C0
:1033700040F00100CBF80000E0E7FFF761F9811BA6
:1033800041F28830814204D90320BDE8F88F26E05D
:1033900005E0DBF8000010F0020FEED016E0FFF7BA
:1033A0004FF90646DBF8000010F0020F0ED0FFF7D1
:1033B00047F9811B41F28830814202D90320BDE8E0
:1033C000F88FDBF8000010F0020FF0D1B9F1010F17
:1033D00005D1DAF8000020F08050CAF80000A0699A
:1033E000E8B32B49096801F00C0108296BD00228C9
:1033F00010D0C7F86080FFF723F90446286810F062
:10340000007F5ED0FFF71CF9001B022855D903206E
:10341000BDE8F88FC7F86080FFF712F90646286804
:1034200010F0007F0BD0FFF70BF9801B022802D9A8
:103430000320BDE8F88F286810F0007FF3D1216ADF
:10344000E069A26A0843616A4FF0FF33890103EB28
:10345000520241EA0241084394F82C1000E030E0A7
:1034600040EA01610B48016001203866FFF7E8F887
:103470000446286810F0007F23D1FFF7E1F8001B15
:10348000022815D90320BDE8F88F1CE0003802405F
:10349000083802400438024000004742800E47428C
:1034A00074380240403802400070004070380240DA
:1034B000286810F0007FE0D003E0286810F0007F5B
:1034C000A0D10020DFE70120DDE770B50446002C25
:1034D00005D00025A56294F8510010B106E0012046
:1034E00070BD84F85050204600F030F8022084F877
:1034F00051002068016821F040010160A168606806
:1035000022690843E1681143084361690843218B3C
:1035100001F400710843E1690843216A0843A16A84
:10352000084321680860A069042101EA1040616A2B
:103530000843216848602068C16921F40061C161C5
:103540006565012084F85100002070BD10B586B07B
:103550000446142101A8FDF71CF84B492068884255
:103560007ED100BF002000904848006840F48050A1
:10357000464908600846006800F48050009000BF8B
:1035800000BF00BF0020009040481438006840F0A1
:1035900002003E49143908600846006800F0020045
:1035A000009000BF00BF00BF0020009008460068E8
:1035B00040F0010008600846006800F0010000903B
:1035C00000BF00BF1820019002200290012003904C
:1035D000032004900520059001A92D48FEF71AFF4D
:1035E000802001900220029001200390032004908B
:1035F0000520059001A92748FEF70CFF264827491A
:1036000008604FF0C0604860002124488160C160BC
:103610004FF480610161002141618161C1614FF41A
:103620004031016200214162FEF7B6FD08B1FDF7AD
:103630006BFF00BF1948E064846300BF1648183070
:10364000174908604FF0C06048604021144881600D
:103650000021C1604FF4806101610021416100E0FF
:1036600010E08161C1614FF40031016200214162CB
:10367000FEF792FD08B1FDF747FF00BF0848A064C0
:10368000846300BF06B010BD0030014044380240E2
:103690000004024000000240406402404C09002047
:1036A000AC0900202DE9F84F04460A9E8A4693464D
:1036B0001F4601254FF0000894F8500001280ED055
:1036C000012084F85000FEF7BBFF814694F85100BA
:1036D000616801280ED0B1F5827F07D102E0022097
:1036E000BDE8F88FA16809B9042803D04FF002089B
:1036F00000F0CBB8BAF1000F1DD0BBF1000F1AD00B
:10370000380018D094F85100042802D0052084F81D
:10371000510000206065C4F838B0E787A787C4F877
:1037200030A0E786A786206460642068016811F0F5
:10373000400F03D006E04FF00108A6E0016841F019
:1037400040010160E068B0F5006F05D060680028B6
:1037500048D0012F46D07EE0606808B1012F3AD1F1
:10376000206B21680088C860206B801C2063E08E7D
:10377000401EE0862FE02068816811F0020F0DD016
:10378000E18E59B1012D09D1216B0988C160206BEF
:10379000801C2063E08E401EE08600252068816842
:1037A00011F0010F0BD0E18F49B1C068A16B088007
:1037B000A06B801CA063E08F401EE0870125FEF710
:1037C0003FFFA0EB0900B04205D3B6F1FF3F02D0A6
:1037D0004FF0030859E0E08E0028CCD1E08F00289C
:1037E000C9D13EE0206B216800780873206B401C33
:1037F0002063E08E401EE0862DE02068816811F095
:10380000020F0DD0E18E59B1012D09D1216B09783C
:103810000173206B401C2063E08E401EE086002573
:103820002068816811F0010F0BD0E18F49B1C068A9
:10383000A16B0870A06B401CA063E08F401EE08766
:103840000125FEF7FDFEA0EB0900B04202D3B6F160
:10385000FF3F11D186B1E08E0028CED1E08F002845
:10386000CBD14A463146204604F0F6FC38B14FF041
:1038700001082020606508E04FF0030805E0A0681B
:1038800018B92068C16880680090012084F8510050
:10389000002084F850004046BDE8F88F401EB0F18B
:1038A000807F01D3012070474FF0E0214861044A36
:1038B000F020107000208861072008610020704708
:1038C00023ED00E030B490F83C20012A1ED0012402
:1038D00080F83C40022280F83D200268D2F804C003
:1038E00093682CF0700C0D6845EA0C0C23F08003F3
:1038F00049681943C2F804C00268916080F83D40ED
:10390000002180F83C1030BC0020704730BC022001
:10391000704710B50446002C03D094F83D0010B158
:1039200007E0012010BD002084F83C00204600F094
:103930000DF8022084F83D00211D206804F0FAFDF6
:10394000012084F83D00002010BD000008B5154A94
:10395000016891420FD100BF00210091124909680E
:1039600041F00801104A11601146096801F0080190
:10397000009100BF15E00D4A0168914211D100BFCE
:10398000002100910849091D096841F40031064AE7
:10399000121D11601146096801F40031009100BF49
:1039A00000BF08BD000C0040403802400044014008
:1039B000022180F83D1001688A6802F00702062A99
:1039C00003D00A6842F001020A60012180F83D102C
:1039D0000020704770B5044694F83C00012818D0C8
:1039E000012584F83C50022084F83D00206882685C
:1039F00022F0770222F47F4282600868502832D099
:103A00000EDC20284DD006DC00284AD010284DD1ED
:103A100047E0022070BD302843D0402846D136E030
:103A200060282AD0702806D0B0F5805F3ED0B0F56F
:103A3000005F3BD10BE0CB684A688968206804F0DE
:103A4000EEFD2068816841F0770181602EE0CB684F
:103A50004A688968206804F0E2FD2068816841F4C2
:103A60008041816022E0CA684968206804F0C6FE8F
:103A70005021206804F0DEFD18E0CA68496820681B
:103A800004F0CFFE6021206804F0D4FD0EE0CA6887
:103A90004968206804F0B2FE4021206804F0CAFDA5
:103AA00004E022680146104604F0C4FD84F83D504D
:103AB000002084F83C0070BD10B586B00446142187
:103AC00001A8FCF766FD2E49206888422DD100BF71
:103AD000002000902B48006840F0800029490860D1
:103AE0000846006800F08000009000BF00BF4FF45F
:103AF000E0500190022002900120039002200490E7
:103B0000059001A92048FEF785FC2048FFF750FFEB
:103B100000211E4800F0CDF804211C4800F0C9F82F
:103B200008211A4800F0C5F828E0194920688842A1
:103B300024D100BF002000901248006840F020000F
:103B4000104908600846006800F02000009000BF9F
:103B500000BF40200190022002900120039002202B
:103B600004900320059001A90A48FEF753FC0A4877
:103B7000FFF71EFF0021084800F09BF806B010BDBB
:103B8000000C004030380240001C02400C0A0020AB
:103B900000440140001402404C0A002070B5044665
:103BA0000D4694F83C0001280DD0012684F83C60B5
:103BB000022084F83D0042B1042A1AD0082A2DD0F0
:103BC0000C2A53D13EE0022070BD2946206804F043
:103BD00039FD2068816941F00801816120688169AF
:103BE00021F004018161206881692A6911438161A2
:103BF0003CE02946206804F05DFD2068816941F4BD
:103C0000006181612068816921F48061816120689F
:103C100081692A6941EA0221816127E029462068F9
:103C200004F084FD2068C16941F00801C161206889
:103C3000C16921F00401C1612068C1692A69114389
:103C4000C16113E02946206804F0ACFD2068C16919
:103C500041F40061C1612068C16921F48061C161E2
:103C60002068C1692A6941EA0221C16184F83D6086
:103C7000002084F83C0070BD10B50446002C03D031
:103C800094F83D0010B107E0012010BD002084F839
:103C90003C00204600F00CF8022084F83D00211D75
:103CA000206804F047FC012084F83D00002010BD8E
:103CB000704710B504460122206804F0A1FC216879
:103CC000A1F18040B0F5803004D0A1F18040B0F582
:103CD000823003D1486C40F4004048642068816819
:103CE00001F00701062903D0016841F001010160DC
:103CF000002010BD7047000010B50446226810680F
:103D0000D168526900F00F03002B0AD110F0200F88
:103D100007D011F0200F04D02046BDE8104004F079
:103D200007BE002B6BD002F0010301F4907C53EA34
:103D30000C0364D010F0010F06D011F4807F03D083
:103D4000E36B43F00103E36310F0040F06D012F0BD
:103D5000010F03D0E36B43F00203E36310F0020FA3
:103D600006D012F0010F03D0E36B43F00403E363CA
:103D700010F0080F06D012F0010F03D0E26B42F0F2
:103D80000802E263E26B002A2ED010F0200F05D06B
:103D900011F0200F02D0204604F0CAFD20684069CF
:103DA000C0F38010E16B11F0080F00D108B320467A
:103DB00004F09AFD2068416911F0400F15D0416967
:103DC00021F040014161606B58B118490165606B99
:103DD000FEF7DAF8002807D0606B016DBDE81040EF
:103DE00008472046FFF786FF10BD2046FFF782FFF9
:103DF00010BD2046FFF77EFF0020E06310BD10F0ED
:103E0000800F07D011F0800F04D02046BDE810408D
:103E100004F07CBF10F0400FF0D011F0400FEDD057
:103E20002046BDE8104004F06DBD00004788000842
:103E300070B50446002C04D094F83900002510B168
:103E400006E0012070BD84F83850204600F022F8CA
:103E5000242084F839002068C16821F40051C16031
:103E6000204604F0B3FD2068016921F4904101610E
:103E70002068416921F02A0141612068C16841F44C
:103E80000051C160E563202084F8390084F83A00CD
:103E9000002070BD10B586B00446142101A8FCF7BF
:103EA00078FB2E492068884255D100BF0020009041
:103EB0002B48006840F480202949086008460068C3
:103EC00000F48020009000BF00BF00BF00200090E1
:103ED00023481038006840F0040021491039086078
:103EE0000846006800F00400009000BF00BF4FF4D7
:103EF0004060019002200290012003900320049072
:103F00000720059001A91748FEF784FA16481749BB
:103F100008604FF000604860002114488160C16073
:103F20004FF480610161002141618161C1610162E1
:103F30004162FEF731F908B1FDF7E6FA00BF0B4820
:103F40006063846300BF002205212720FEF744FF41
:103F50002720FEF733FF06B010BD000000480040E8
:103F6000403802400008024028600240CC0A00208D
:103F700037B582B00446134694F83A00202802D0A0
:103F800005B0022030BD039A002A36D0002B34D071
:103F900094F83800012833D0012084F83800A26258
:103FA000A3850025E563222084F83A00616B16485A
:103FB000C863616B15480864616B1548C864606B21
:103FC00005652068011D606BFEF75CF920680168DB
:103FD0004168019184F83850C16841F48071C16032
:103FE0002068416941F0010141612068416941F067
:103FF0004001416105B0002030BD05B0012030BD59
:1040000005B0022030BD0000A1880008DF8800084C
:104010005788000889490978884A527841EA02217C
:10402000C1F30A01864A118084494978C910834A3C
:10403000927841EA4211C1F30A01814A51807F49D5
:10404000897889117D4AD27841EA82017B4A1279C6
:1040500041EA8221C1F30A01794A918077490979BD
:104060004910764A527941EAC211C1F30A01744AF1
:10407000D18072494979C1F3011111726F494979AF
:104080000911890851721146498800EE101AB8EEDC
:10409000400ADFED6C0A30EE600ADFED6B0A20EEBD
:1040A000200A6A4981ED000A1146098800EE101ABB
:1040B000B8EE400ADFED630A30EE600ADFED640A15
:1040C00020EE200A634981ED000A1146C98800EEFE
:1040D000101AB8EE400ADFED5B0A30EE600AB1EE6E
:1040E000400ADFED5D0A20EE200A1146898800EEC5
:1040F000901AF8EE600A9FED531A70EEC10A9FED18
:10410000561A00EE810A1146098800EE901AF8EE60
:10411000600A9FED4C1A70EEC10A9FED4F1A00EE37
:10412000810A4E4981ED000A1146C98800EE101A35
:10413000B8EE400ADFED430A30EE600AB1EE400A05
:10414000DFED450A20EE200A1146898800EE901A1C
:10415000F8EE600A9FED3B1A70EEC10A9FED3E1A21
:1041600000EEC10A1146098800EE901AF8EE600AC6
:104170009FED341A70EEC10A9FED371A00EE810AE6
:10418000374981ED000A1146C98800EE101AB8EED1
:10419000400ADFED2C0A30EE600ADFED2F0A20EE38
:1041A000200A1146898800EE901AF8EE600A9FED09
:1041B000251A70EEC10A9FED281A00EEC10A1146B9
:1041C000098800EE901AF8EE600A9FED1E1A70EE54
:1041D000C10A9FED211A00EE810A224981ED000AF1
:1041E0001146C98800EE101AB8EE400ADFED150A34
:1041F00030EE600ADFED180A20EE200A11468988A9
:1042000000EE901AF8EE600A9FED0E1A70EEC10AE9
:104210009FED111A00EE810A1146098800EE901AEE
:10422000F8EE600A9FED071A70EEC10A9FED0A1AB8
:1042300000EE810A0C4981ED000A7047AC0D0020A8
:1042400000700020000080440AD7A34090010020A5
:10425000295C8F3F8801002014AE074068010020D0
:104260006C0100207001002074010020704770472D
:1042700000BFFEE701684A6912F4806F11D06FF445
:1042800080624A6100210163202280F83D2080F88D
:104290003E10026C42F00402026480F83C100120DF
:1042A00070470020704700002DE9F84F0446DDF804
:1042B00028A00B9D0F46904699462068016841F45E
:1042C000806101602068016841F48071016053469B
:1042D00000224FF001112046009500F00DF910B1B9
:1042E0000120BDE8F88F216807F0FE000861DFF8C3
:1042F000E8B02B4652465946204600F057F910B117
:104300000120BDE8F88F20684169806900902A4645
:104310005146204600F0EFF950B1206C042804D13A
:104320002068016841F4007101600120BDE8F88F48
:1043300008F0FF06B9F1010F0DD021684FEA1820EF
:1043400008612A465146204600F0D5F970B1206C2C
:10435000042803D007E02068066109E020680168AE
:1043600041F4007101600120BDE8F88F206806610A
:104370002A465146204600F0BEF950B1206C042870
:1043800004D12068016841F4007101600120BDE89A
:10439000F88F2068016841F4807101605346002263
:1043A0004FF001112046009500F0A6F810B1012051
:1043B000BDE8F88F2168F8B240F0010008612B4693
:1043C00052465946204600F0F1F810B10120BDE8F0
:1043D000F88F0020BDE8F88F020001002DE9F843B6
:1043E0000446DDF82090099F0D4616469846206841
:1043F000016841F4807101604B4600224FF00111C9
:104400002046009700F078F810B10120BDE8F8834D
:10441000216805F0FE0008613B464A461E492046D9
:1044200000F0C4F810B10120BDE8F88320684169AC
:10443000806900903A464946204600F05CF950B148
:10444000206C042804D12068016841F400710160E7
:104450000120BDE8F883F5B2B8F1010F0CD0216856
:10446000300A08613A464946204600F044F970B1E6
:10447000206C042803D007E02068056109E020686B
:10448000016841F4007101600120BDE8F8832068F3
:1044900005610020BDE8F8830200010070B5044604
:1044A0000D4616462068406910F0040F13D12046CF
:1044B000FFF7E0FE08B1012070BDB5F1FF3F05D068
:1044C000FEF7BEF8801BA84207D835B120684069C6
:1044D00010F0040FEBD0002070BD002020632021DD
:1044E00084F83D1084F83E00216C41F020012164E5
:1044F00084F83C00012070BD2DE9F0470446DDF84A
:1045000020900D4617461E46C5F307482068B8F1AF
:10451000010F22D0806925EA00000004000C26D09B
:104520000020B84216D1B6F1FF3F06D0FEF788F85A
:10453000A0EB0900B0421CD8DEB1B8F1010F28D0C1
:104540002068806925EA00000004000C2CD00020BF
:10455000B842E8D00020BDE8F087406925EA0000B5
:104560000004000C01D00020DBE70120D9E7012086
:10457000D7E700202063202184F83D1084F83E0016
:10458000216C41F02001216484F83C000120BDE849
:10459000F0872068406925EA00000004000C01D083
:1045A0000020D5E70120D3E70120D1E72DE9F0472E
:1045B00004460D4616461F46C5F307482068B8F165
:1045C000010F26D0806925EA00000004000C3AD0D3
:1045D0004FF000094FF0200A2068406910F4806F06
:1045E0001ED02068016841F40071016021686FF4F9
:1045F00080604861C4F8309084F83DA084F83E9013
:10460000206C40F00400206484F83C900120BDE858
:10461000F087406925EA00000004000C13D0D7E7BA
:10462000B6F1FF3F05D0FEF70BF8C01BB0420DD826
:1046300066B1B8F1010F18D02068806925EA000042
:104640000004000CC8D10020BDE8F087C4F8309009
:1046500084F83DA084F83E90206C40F02000206457
:1046600084F83C900120BDE8F0872068406925EA85
:1046700000000004000CAFD1E5E72DE9F04104464D
:104680000D4616462068406910F0400F22D10027E1
:104690004FF020082068406910F0100F0FD02168FB
:1046A0006FF010004861276384F83D8084F83E7005
:1046B000206C206484F83C700120BDE8F081FDF797
:1046C000BFFF801BA84208D83DB12068406910F0A8
:1046D000400FDFD00020BDE8F081276384F83D80E3
:1046E00084F83E70206C40F02000206484F83C7018
:1046F0000120BDE8F08170B504460D4616462068DD
:10470000406910F0800F13D12046FFF7B3FD08B1C8
:10471000012070BDB5F1FF3F05D0FDF791FF801B73
:10472000A84207D835B12068406910F0800FEBD05F
:10473000002070BD00202063202184F83D1084F803
:104740003E00216C41F02001216484F83C000120EE
:1047500070BD0000072005F0ADFF02E0642005F009
:10476000A9FFFCF7A5F80028F8D102E0642005F0C5
:10477000A1FF05F079FD0028F8D1404AA2F10C0113
:10478000101DFCF7AFF8DFED3E0A9FED3E0A3E4AF2
:1047900000213E4801F0D2F83D4A38490C393D48E5
:1047A000FBF78CFF002005F0C1FF044607F02EFC4C
:1047B0003949086010213948C161FEF786FE08B109
:1047C000FCF7A2FE08223649364803F085FC01209A
:1047D0003549087051E000BF4FF0FF31012006F06D
:1047E000D3FD0128F8D13148007800F0080058B115
:1047F0002E48007820F008002C4908701F49091D38
:104800002748401CFCF720F82948007800F00400F5
:1048100060B12748007820F0040025490870174A45
:104820001032A2F11C012348FBF7B8FF22480078A0
:1048300000F0040088B12048007820F004001E49F0
:1048400008700E491D48FCF73BF90C481038D0EDB4
:10485000040AB0EE600A05F025FC0D4B074A0C3A3D
:1048600002F110019FED160A0A48FBF73BFF154BBA
:104870001A1F111F074805F0CDFAACE7480B0020BE
:104880000080894500A08C45F0C900086C0B002011
:10489000600B0020B40B002028000020F40800204A
:1048A0002C00002034000020510000204D0000208A
:1048B0004E0000202E0B00204F000020470000205B
:1048C0006F12833ACC0B002010B50F480F490860D7
:1048D0000320486000210D488160C1604FF4002131
:1048E00001614FF4401141610021017601214176BF
:1048F00000218176C17601774177FDF714F908B17F
:10490000FCF702FE10BD00000064004050080020CB
:1049100010B50F480F4908600320486000210D487A
:104920008160C1604FF4002101614FF44011416189
:10493000002101760121417600218176C17601773F
:104940004177FDF7F0F808B1FCF7DEFD10BD00007F
:10495000006800407808002008B500BF00200090E3
:104960001A48006840F4800018490860084600684A
:1049700000F48000009000BF00BF00BF0020009046
:104980000846006840F4001008600846006800F41B
:104990000010009000BF00BF002205210C20FEF790
:1049A0001BFA0C20FEF70AFA002205213A20FEF736
:1049B00013FA3A20FEF702FA002205213B20FEF707
:1049C0000BFA3B20FEF7FAF908BD00003038024030
:1049D00000B59DB01C22184916A8FBF7A0FD0021C8
:1049E00016A805F074FE154908601C2212491C31F6
:1049F0000FA8FBF794FD00210FA805F068FE1049F1
:104A000008601C220C49383108A8FBF788FD0021FA
:104A100008A805F05CFE0B4908601C2206495431C9
:104A200001A8FBF77CFD002101A805F050FE064916
:104A300008601DB000BD000068C900080C0000201F
:104A400000000020040000200800002000B587B00E
:104A5000142102A8FBF79DFD00BF002001906548CE
:104A6000006840F00200634908600846006800F0F2
:104A70000200019000BF00BF00BF00200190084667
:104A8000006840F0010008600846006800F001007E
:104A9000019000BF00BF00BF0020019008460068E1
:104AA00040F0080008600846006800F00800019027
:104AB00000BF00BF00BF002001900846006840F022
:104AC000040008600846006800F00400019000BF80
:104AD00000BF00BF002001900846006840F0800041
:104AE00008600846006800F08000019000BF00BF29
:104AF00000BF002001900846006840F040000860B8
:104B00000846006800F04000019000BF00BF00BFF1
:104B1000002001900846006840F020000860084628
:104B2000006800F02000019000BF00BF012240217A
:104B30003148FDF77DFD012210213048FDF778FD59
:104B4000012211462E48FDF773FD402002900120FE
:104B500003900490059002A92748FDF75BFC09200B
:104B60000290284803900120049002A92248FDF7F2
:104B700051FC102002900120039004900220059027
:104B800002A91E48FDF746FC302002901D48039004
:104B90000120049002A91C48FDF73CFC0120029072
:104BA000039004900220059002A91548FDF732FCFD
:104BB000002206210846FEF70FF90620FEF7FEF850
:104BC000002205210920FEF707F90920FEF7F6F873
:104BD000002205210A20FEF7FFF80A20FEF7EEF872
:104BE000002205211720FEF7F7F81720FEF7E6F858
:104BF00007B000BD303802400018024000000240FB
:104C000000040240000021100008024010B50B48CB
:104C10000B4908600B484860002109488160C16069
:104C20004FF480410161002141618161C1610162F4
:104C3000FDF70CFD08B1FCF767FC10BD005C0040FF
:104C4000A0080020801A060010B50F480F49086020
:104C50004FF48270486000210C488160C1600221DD
:104C6000016101214161490281613821C161002155
:104C70000162416281620A21C162FEF726FC08B12D
:104C8000FCF742FC10BD000000300140F408002099
:104C900000B587B01C216846FBF77BFC1548164918
:104CA00008600020486000211348816041F287318C
:104CB000C160002101618161FEF72BFE08B1FCF7A4
:104CC00023FC0D48FEF7D8FF08B1FCF71DFC60205F
:104CD000009000200190029004900022694606484E
:104CE000FEF75CFF08B1FCF70FFC0348FEF7E4FE9B
:104CF00007B000BD004401404C0A002000B58DB053
:104D0000002009900A900B900C90079008901C21AD
:104D10006846FBF73EFC28482849086000204860A8
:104D20000021264881604FF6FF71C16000210161BA
:104D30008161FEF7EEFD08B1FCF7E6FB4FF4805011
:104D4000099009A91D48FEF745FE08B1FCF7DCFBF8
:104D50001A48FEF791FF08B1FCF7D6FB0020079038
:104D6000089007A91548FEF7ADFD08B1FCF7CCFB8C
:104D7000602000900020019002900490002269467B
:104D80000E48FEF70BFF08B1FCF7BEFB0422694694
:104D90000A48FEF703FF08B1FCF7B6FB0822694694
:104DA0000648FEF7FBFE08B1FCF7AEFB0348FEF732
:104DB00083FE0DB000BD0000000C00400C0A002076
:104DC00010B50C480C4908600C4848604FF48051FD
:104DD000094881600021C1604FF4806101610C21AC
:104DE000416100218161C161FFF722F808B1FCF740
:104DF0008BFB10BD004800408C0A0020A0860100FB
:104E000010B52DED108B98B00446B0EE40AAF0EE30
:104E100060AAB0EE41BAF0EE61CAF0EE42BAB0EE6E
:104E200062CAF0EE439AB0EE638AF0EE448AF5EE81
:104E3000C09AF1EE10FA1CD1B5EEC08AF1EE10FA6C
:104E400017D1F5EEC08AF1EE10FA12D1F0EE4C2A2D
:104E5000B0EE6B2AF0EE6C1AB0EE4B1AF0EE6A0A66
:104E6000B0EE4A0A204600F0A1FA18B0BDEC108B53
:104E700010BDF5EEC0CAF1EE10FA09D1F5EEC0BAD8
:104E8000F1EE10FA04D1B5EEC0CAF1EE10FA7CD002
:104E90006CEEAC0A4BEEAB0A4CEE0C0AB0EE600ABC
:104EA00005F06CF9B0EE409A2CEE890AF0EE40CA9B
:104EB0002BEE890AF0EE40BA2CEE090AB0EE40CA99
:104EC00069EEA90A48EE080A48EEA80AB0EE600AA0
:104ED00005F054F9B0EE409A29EE890AF0EE409AB6
:104EE00028EE090AB0EE408A28EE890AF0EE408AE0
:104EF00094ED000A20EE000A8DED170A94ED000AE9
:104F0000D4ED010A20EE20EA94ED000AD4ED020A65
:104F100020EE20DA94ED000AD4ED030A20EE200AF8
:104F20008DED160A94ED010A20EE000A8DED150AAA
:104F300094ED010AD4ED020A20EE200A8DED140A48
:104F400094ED010AD4ED030A60EE20DA94ED020A32
:104F500060EE00EA94ED020AD4ED030A20EE20FA96
:104F600094ED030A60EE00FAB6EE000A30EE6E0A27
:104F700030EE6F0A20EE291A9DED140ADDED160AB7
:104F800070EE600AB0EE410A00E060E108EE200A2F
:104F90007DEE8D0A08EEA00AF0EE000A20EE200A4F
:104FA0008DED130A9DED140ADDED160A30EE200A90
:104FB00060EE290A9DED150AB6EE001A31EE400AA0
:104FC00030EE6F1AB0EE600A08EE010A7FEE4E0A6C
:104FD00008EEA00AF0EE000A20EE200A8DED120A7B
:104FE0009DED130A60EE000A9DED120A40EE000AE4
:104FF00010EE901A084607F03BFCCDE900019DED4C
:10500000000B04F0C1F88DED020B9DED020B51EC8D
:10501000100B07F01BFA11903DEECD0A20EE290A85
:105020007FEE0E0A08EE200ADDED150AB6EE001A34
:1050300071EE600A70EEEE0A08EEA00AF0EE000AC9
:1050400020EE200A8DED100A3DEECD0A8DED0F0AFF
:105050003EEE0F0A8DED0E0A9DED170AF6EE000AE0
:1050600030EE600A30EE2F0A8DED0D0AB6EE000A22
:1050700030EE6E0A70EE6F0A9DED110A20EE800A86
:105080003DEECD1ADDED100A00EE810A8DED0C0A21
:105090009DED140ADDED160A70EE600A9DED110A11
:1050A00020EE800A3EEE0F1ADDED100A00EE810AB6
:1050B0008DED0B0A7DEE2D0A9DED110A20EE801A72
:1050C0009DED150AF6EE000A30EEC00A70EE6E1A7B
:1050D000DDED100AB0EE410A00EEA10A8DED0A0ADC
:1050E0009DED0D0A6BEE800A9DED0E0A4CEE400A16
:1050F0009DED0A0A28EE001A9DED0B0A08EEC01A73
:1051000030EE810A8DED090A9DED0F0A6CEE000A62
:105110009DED0D0A4CEEC00A9DED0C0A28EE801A9A
:105120009DED0A0A09EEC01A30EE810A8DED080ADB
:105130009DED0E0A6CEE800A9DED0F0A4BEEC00A43
:105140009DED0B0A29EE801A9DED0C0A08EE401A1F
:1051500030EE810A8DED070A8C4890ED000AB5EE1D
:10516000C00AF1EE10FA44DDD0ED000A9DED090A07
:1051700060EE800A864890ED000A9FED861A00EEE8
:10518000810A80ED000A8148D0ED000A9DED080AF1
:1051900060EE800A804890ED000A9FED7E1A00EED6
:1051A000810A80ED000A7948D0ED000A9DED070ADA
:1051B00060EE800A794890ED000A9FED761A00EEC5
:1051C000810A80ED000A724890ED000A3AEE000A6A
:1051D000B0EE40AA704890ED000A3AEE800AF0EE78
:1051E00040AA6E4890ED000A3BEE000AB0EE40BACD
:1051F0000EE09FED6B0A664880ED000A9FED680A9D
:10520000654880ED000A9FED660A644880ED000A5B
:10521000644890ED001A9DED090AF0EE4A0A41EE4D
:10522000000AB0EE60AA90ED001A9DED080AF0EEBB
:105230006A0A41EE000AF0EE60AA90ED001A9DEDB8
:10524000070AF0EE4B0A41EE000AB0EE60BA9FED9D
:10525000560A2AEE000AB0EE40AA9FED530A2AEE43
:10526000800AF0EE40AA9FED500A2BEE000AB0EE45
:1052700040BA94ED000A8DED060A94ED010A8DED19
:10528000050A94ED020A8DED040A9DED050AB1EEC2
:10529000400A60EE0A0A9DED040A40EE6A0A94EDA7
:1052A000030A40EE4B0A94ED000A30EE800A84EDCA
:1052B000000A9DED060A60EE0A0A9DED040A40EE22
:1052C0000B0A94ED030A40EE6A0A94ED010A30EEEF
:1052D000800A84ED010A9DED060A60EE2A0A9DED22
:1052E000050A40EE4B0A94ED030A40EE0A0A94EDDB
:1052F000020A30EE800A84ED020A9DED060A20EED5
:105300000B0ADDED050A00EEAA0ADDED040A00EE47
:10531000CA0AD4ED030A30EE200A84ED030AD4ED64
:10532000000A60EEA00A94ED011AD4ED011A41EED4
:10533000210A94ED021AD4ED021A41EE210A94EDED
:10534000031AD4ED031A41EE210AB0EE600A04F00C
:1053500015FFB0EE409A94ED000A20EE090A84EDA4
:10536000000A94ED010A20EE090A84ED010A94ED89
:10537000020A20EE090A84ED020A94ED030A20EEE7
:10538000090A84ED030A00BF6FE5000078000020E1
:105390007C0000206F12833A8000002084000020EF
:1053A00000000000740000206F12033A00B52DEDDC
:1053B000068B0246B0EE403AF0EE603AB0EE414A5B
:1053C000F0EE615AF0EE424AB0EE625AF5EEC05A83
:1053D000F1EE10FA09D1F5EEC04AF1EE10FA04D15F
:1053E000B5EEC05AF1EE10FA7ED065EEA50A44EE95
:1053F000A40A45EE050AB0EE600A04F0BFFEF0EE26
:10540000402A25EEA20AF0EE405A24EEA20AF0EE5F
:10541000404A25EE220AB0EE405A92ED010AD2ED42
:10542000030A20EE200AD2ED000A92ED021AF0EEF5
:10543000408A40EEC18A92ED000AD2ED010A20EEC8
:10544000200AD2ED020A92ED031AF0EE409A40EEE5
:10545000819AD2ED000A92ED001AB6EE000A10EE23
:10546000810AD2ED030A92ED031AB0EE409A00EEE3
:10547000819A24EE890AF0EE407A45EE697A25EEAB
:10548000280AB0EE40AA05EEC9AA25EEA90AB0EE98
:10549000408A04EEE88A7C4890ED000AB5EEC00A26
:1054A000F1EE10FA40DD90ED000A60EE270A774831
:1054B00090ED000A9FED761A00EE810A80ED000A59
:1054C000714890ED000A60EE0A0A724890ED000AF9
:1054D0009FED6F1A00EE810A80ED000A6A4890ED98
:1054E000000A60EE080A00E046E06B4890ED000A12
:1054F0009FED671A00EE810A80ED000A634890ED87
:10550000000A33EE000AB0EE403A624890ED000A1D
:1055100033EE800AF0EE403A5F4890ED000A34EE38
:10552000000AB0EE404A0EE09FED5C0A574880ED5D
:10553000000A9FED5A0A574880ED000A9FED570A6E
:10554000554880ED000A5648D0ED000AB0EE430AF7
:1055500000EEA70AB0EE403AD0ED000AB0EE630AC2
:1055600000EE8A0AF0EE403AD0ED000AB0EE440AAE
:1055700000EE880AB0EE404A9FED4A0A23EE000A88
:10558000B0EE403A9FED470A23EE800AF0EE403A33
:105590009FED440A24EE000AB0EE404A92ED006A04
:1055A000D2ED016A92ED027AB1EE660A20EE030AAC
:1055B00007EE630AD2ED030A00EEC40AD2ED000A38
:1055C00030EE200A82ED000A26EE030A07EE040AF6
:1055D000D2ED030A00EEE30AD2ED010A30EE200A12
:1055E00082ED010A26EE230A06EEC40AD2ED030A72
:1055F00000EE830AD2ED020A30EE200A82ED020AA2
:1056000026EE040A06EEA30A07EE430AD2ED030AC9
:1056100030EE200A82ED030AD2ED000A60EEA00A05
:1056200092ED011AD2ED011A41EE210A92ED021A11
:10563000D2ED021A41EE210A92ED031AD2ED031ABD
:1056400041EE210AB0EE600A04F098FDF0EE402A27
:1056500092ED000A20EE220A82ED000A92ED010A84
:1056600020EE220A82ED010A92ED020A20EE220AC1
:1056700082ED020A92ED030A20EE220A82ED030A6D
:10568000BDEC068B00BD0000780000207C000020EF
:105690006F12833A80000020840000200000000088
:1056A000740000206F12033A00BFFEE770B52DEDC5
:1056B000048B05460C4616466178227841EA0220A2
:1056C0001021DFED1D0A9FED1D0A05F044FE85ED5A
:1056D000010AE178A27841EA02201021F3EE0E0AD5
:1056E000BBEE0E0A05F037FE85ED020A61792279DC
:1056F00041EA02201021F2EE080ABAEE080A05F08B
:105700002AFE85ED030AE179A27941EA022006F03A
:10571000CEFE41EC190B9FED0A0B53EC102B06F05B
:10572000DDFE41EC180B06F091FE2861C6F3044043
:10573000A876BDEC048B70BD00003444000034C476
:105740009A9999999999B93F70470000B0EE401A1B
:1057500010B99FED790A704790ED100A80ED110A9B
:1057600090ED0F0A80ED100AC0ED060A80ED071AD1
:1057700030EEC10A80ED0F0A0178002975D190ED55
:10578000010AD0ED0F1A20EE210A80ED090A90EDF2
:105790000A0AD0ED021A90ED0F2A01EE820A80ED7E
:1057A0000A0A90ED0D0A80ED0E0A90ED0C0A80EDCC
:1057B0000D0A90ED0F0AD0ED101A30EE610A80ED5F
:1057C0000C0A90ED030AD0ED0C1A20EE210A80EDB0
:1057D0000B0A90ED0A0AD0ED051AB4EEE10AF1EEDB
:1057E00010FA04DD90ED050A80ED0A0A10E090ED54
:1057F0000A0AD0ED051AF1EE611AB4EEE10AF1EEF3
:1058000010FA05D290ED050AB1EE400A80ED0A0AC1
:1058100090ED090AD0ED0A1A30EE210AD0ED0B1AEC
:1058200030EE210A80ED080A90ED080AD0ED041A46
:10583000B4EEE10AF1EE10FA04DD90ED040A80ED19
:10584000080A76E090ED080AD0ED041AF1EE611A2C
:10585000B4EEE10AF1EE10FA6BD290ED040AB1EE6B
:10586000400A80ED080A64E0FFE70178012960D171
:1058700090ED0F0AD0ED101A30EE610AD0ED011A4A
:1058800020EE210A80ED090A90ED020AD0ED0F1AF0
:1058900020EE210A80ED0A0A90ED0D0A80ED0E0A35
:1058A00090ED0C0A80ED0D0A90ED0F0AD0ED101A64
:1058B000B0EE002A02EE610AD0ED111A30EE210A94
:1058C00080ED0C0A90ED030AD0ED0C1A20EE210AAF
:1058D00080ED0B0A90ED090AD0ED0A1A30EE210A8C
:1058E000D0ED0B1A30EE210AD0ED081A30EE210A65
:1058F00080ED080A90ED080AD0ED041AB4EEE10A32
:10590000F1EE10FA04DD90ED040A80ED080A10E0D3
:1059100090ED080AD0ED041AF1EE611AB4EEE10A36
:10592000F1EE10FA05D290ED040AB1EE400A80EDD6
:10593000080A90ED080A0EE70000000000B102B965
:105940007047017092ED001A80ED011A92ED011A74
:1059500080ED021A92ED021A80ED031A80ED040A1E
:10596000C0ED050A9FED0C1A80ED0E1A80ED0D1AA0
:1059700080ED0C1A9FED081A80ED081A80ED0B1AC5
:1059800080ED0A1A80ED091A80ED111A80ED101AC7
:1059900080ED0F1A00BFD3E70000000010B5FB4BED
:1059A0001B681B6823F00103F84C24682360F84B44
:1059B0001B681B6823F00103F54C2468236007E093
:1059C000F24B1B681B6823F00103F04C2468236032
:1059D000EE4B1B681B6803F00103002BF0D107E0BE
:1059E000EB4B1B681B6823F00103E94C2468236020
:1059F000E74B1B681B6803F00103002BF0D1E54B5C
:105A0000DB6C1B68E44CA34275D9E24BDB6C1B6872
:105A1000E24CA34201D1202368E0DE4BDB6C1B6823
:105A2000DD4C483CA34201D120235FE0D94BDB6C25
:105A30001B68DA4C6034A34201D1202356E0D54BD9
:105A4000DB6C1B68D44C1834A34201D120234DE0F9
:105A5000D04BDB6C1B68D14C1834A34201D1DB1452
:105A600044E0CC4BDB6C1B68CB4C303CA34201D1F7
:105A7000DB143BE0C74BDB6C1B68C84C7834A3429B
:105A800001D1DB1432E0C34BDB6C1B68C24C3034F9
:105A9000A34201D1DB1429E0BE4BDB6C1B68BF4C79
:105AA0003034A34202D14FF400131FE0B94BDB6C3A
:105AB0001B68B94C183CA34202D14FF4001315E007
:105AC000B44BDB6C1B68B54C9034A34202D14FF44D
:105AD00000130BE0AF4BDB6C1B68AF4C4834A342A8
